{
	"contractName": "Campaign",
	"abi": [
		{
			"constant": true,
			"inputs": [
				{
					"name": "",
					"type": "address"
				}
			],
			"name": "contributers",
			"outputs": [
				{
					"name": "",
					"type": "bool"
				}
			],
			"payable": false,
			"stateMutability": "view",
			"type": "function"
		},
		{
			"constant": true,
			"inputs": [],
			"name": "manager",
			"outputs": [
				{
					"name": "",
					"type": "address"
				}
			],
			"payable": false,
			"stateMutability": "view",
			"type": "function"
		},
		{
			"constant": true,
			"inputs": [
				{
					"name": "",
					"type": "uint256"
				}
			],
			"name": "requests",
			"outputs": [
				{
					"name": "description",
					"type": "string"
				},
				{
					"name": "value",
					"type": "uint256"
				},
				{
					"name": "recipient",
					"type": "address"
				},
				{
					"name": "complete",
					"type": "bool"
				},
				{
					"name": "approvalsCount",
					"type": "uint256"
				}
			],
			"payable": false,
			"stateMutability": "view",
			"type": "function"
		},
		{
			"constant": true,
			"inputs": [],
			"name": "minimumContribution",
			"outputs": [
				{
					"name": "",
					"type": "uint256"
				}
			],
			"payable": false,
			"stateMutability": "view",
			"type": "function"
		},
		{
			"constant": true,
			"inputs": [],
			"name": "contributersCount",
			"outputs": [
				{
					"name": "",
					"type": "uint256"
				}
			],
			"payable": false,
			"stateMutability": "view",
			"type": "function"
		},
		{
			"inputs": [
				{
					"name": "minimum",
					"type": "uint256"
				},
				{
					"name": "creator",
					"type": "address"
				}
			],
			"payable": false,
			"stateMutability": "nonpayable",
			"type": "constructor"
		},
		{
			"constant": false,
			"inputs": [],
			"name": "contribute",
			"outputs": [],
			"payable": true,
			"stateMutability": "payable",
			"type": "function"
		},
		{
			"constant": false,
			"inputs": [
				{
					"name": "description",
					"type": "string"
				},
				{
					"name": "value",
					"type": "uint256"
				},
				{
					"name": "recipient",
					"type": "address"
				}
			],
			"name": "createRequest",
			"outputs": [],
			"payable": false,
			"stateMutability": "nonpayable",
			"type": "function"
		},
		{
			"constant": false,
			"inputs": [
				{
					"name": "index",
					"type": "uint256"
				}
			],
			"name": "approveRequest",
			"outputs": [],
			"payable": false,
			"stateMutability": "nonpayable",
			"type": "function"
		},
		{
			"constant": false,
			"inputs": [
				{
					"name": "index",
					"type": "uint256"
				}
			],
			"name": "finalizeRequest",
			"outputs": [],
			"payable": false,
			"stateMutability": "nonpayable",
			"type": "function"
		},
		{
			"constant": true,
			"inputs": [],
			"name": "getSummary",
			"outputs": [
				{
					"name": "",
					"type": "uint256"
				},
				{
					"name": "",
					"type": "uint256"
				},
				{
					"name": "",
					"type": "uint256"
				},
				{
					"name": "",
					"type": "uint256"
				},
				{
					"name": "",
					"type": "address"
				}
			],
			"payable": false,
			"stateMutability": "view",
			"type": "function"
		},
		{
			"constant": true,
			"inputs": [],
			"name": "getRequestsCount",
			"outputs": [
				{
					"name": "",
					"type": "uint256"
				}
			],
			"payable": false,
			"stateMutability": "view",
			"type": "function"
		}
	],
	"bytecode": "0x608060405234801561001057600080fd5b50604051604080610cda833981018060405281019080805190602001909291908051906020019092919050505080600160006101000a81548173ffffffffffffffffffffffffffffffffffffffff021916908373ffffffffffffffffffffffffffffffffffffffff160217905550816002819055505050610c44806100966000396000f3006080604052600436106100af576000357c0100000000000000000000000000000000000000000000000000000000900463ffffffff16806303441006146100b45780633410452a146100e157806334b664601461010c5780634051ddac14610167578063481c6a75146101da57806381d12c58146102315780638a9cfd5514610323578063937e09b1146103b6578063d7bb99ba146103e1578063d7d1bbdb146103eb578063e9f146a314610418575b600080fd5b3480156100c057600080fd5b506100df60048036038101908080359060200190929190505050610443565b005b3480156100ed57600080fd5b506100f66105f8565b6040518082815260200191505060405180910390f35b34801561011857600080fd5b5061014d600480360381019080803573ffffffffffffffffffffffffffffffffffffffff169060200190929190505050610604565b604051808215151515815260200191505060405180910390f35b34801561017357600080fd5b5061017c610624565b604051808681526020018581526020018481526020018381526020018273ffffffffffffffffffffffffffffffffffffffff1673ffffffffffffffffffffffffffffffffffffffff1681526020019550505050505060405180910390f35b3480156101e657600080fd5b506101ef610684565b604051808273ffffffffffffffffffffffffffffffffffffffff1673ffffffffffffffffffffffffffffffffffffffff16815260200191505060405180910390f35b34801561023d57600080fd5b5061025c600480360381019080803590602001909291905050506106aa565b60405180806020018681526020018573ffffffffffffffffffffffffffffffffffffffff1673ffffffffffffffffffffffffffffffffffffffff16815260200184151515158152602001838152602001828103825287818151815260200191508051906020019080838360005b838110156102e45780820151818401526020810190506102c9565b50505050905090810190601f1680156103115780820380516001836020036101000a031916815260200191505b50965050505050505060405180910390f35b34801561032f57600080fd5b506103b4600480360381019080803590602001908201803590602001908080601f016020809104026020016040519081016040528093929190818152602001838380828437820191505050505050919291929080359060200190929190803573ffffffffffffffffffffffffffffffffffffffff1690602001909291905050506107b4565b005b3480156103c257600080fd5b506103cb61092b565b6040518082815260200191505060405180910390f35b6103e9610931565b005b3480156103f757600080fd5b50610416600480360381019080803590602001909291905050506109ad565b005b34801561042457600080fd5b5061042d610b25565b6040518082815260200191505060405180910390f35b600160009054906101000a900473ffffffffffffffffffffffffffffffffffffffff1673ffffffffffffffffffffffffffffffffffffffff163373ffffffffffffffffffffffffffffffffffffffff1614151561049f57600080fd5b6000818154811015156104ae57fe5b906000526020600020906005020160020160149054906101000a900460ff161515156104d957600080fd5b60026004548115156104e757fe5b046000828154811015156104f757fe5b90600052602060002090600502016003015411151561051557600080fd5b60008181548110151561052457fe5b906000526020600020906005020160020160009054906101000a900473ffffffffffffffffffffffffffffffffffffffff1673ffffffffffffffffffffffffffffffffffffffff166108fc60008381548110151561057e57fe5b9060005260206000209060050201600101549081150290604051600060405180830381858888f193505050501580156105bb573d6000803e3d6000fd5b5060016000828154811015156105cd57fe5b906000526020600020906005020160020160146101000a81548160ff02191690831515021790555050565b60008080549050905090565b60036020528060005260406000206000915054906101000a900460ff1681565b60008060008060006002543073ffffffffffffffffffffffffffffffffffffffff1631600080549050600454600160009054906101000a900473ffffffffffffffffffffffffffffffffffffffff16945094509450945094509091929394565b600160009054906101000a900473ffffffffffffffffffffffffffffffffffffffff1681565b6000818154811015156106b957fe5b9060005260206000209060050201600091509050806000018054600181600116156101000203166002900480601f0160208091040260200160405190810160405280929190818152602001828054600181600116156101000203166002900480156107655780601f1061073a57610100808354040283529160200191610765565b820191906000526020600020905b81548152906001019060200180831161074857829003601f168201915b5050505050908060010154908060020160009054906101000a900473ffffffffffffffffffffffffffffffffffffffff16908060020160149054906101000a900460ff16908060030154905085565b6107bc610b2b565b600160009054906101000a900473ffffffffffffffffffffffffffffffffffffffff1673ffffffffffffffffffffffffffffffffffffffff163373ffffffffffffffffffffffffffffffffffffffff1614151561081857600080fd5b60a0604051908101604052808581526020018481526020018373ffffffffffffffffffffffffffffffffffffffff168152602001600015158152602001600081525090506000819080600181540180825580915050906001820390600052602060002090600502016000909192909190915060008201518160000190805190602001906108a6929190610b73565b506020820151816001015560408201518160020160006101000a81548173ffffffffffffffffffffffffffffffffffffffff021916908373ffffffffffffffffffffffffffffffffffffffff16021790555060608201518160020160146101000a81548160ff0219169083151502179055506080820151816003015550505050505050565b60025481565b6002543411151561094157600080fd5b6001600360003373ffffffffffffffffffffffffffffffffffffffff1673ffffffffffffffffffffffffffffffffffffffff16815260200190815260200160002060006101000a81548160ff021916908315150217905550600460008154809291906001019190505550565b600360003373ffffffffffffffffffffffffffffffffffffffff1673ffffffffffffffffffffffffffffffffffffffff16815260200190815260200160002060009054906101000a900460ff161515610a0557600080fd5b600081815481101515610a1457fe5b906000526020600020906005020160040160003373ffffffffffffffffffffffffffffffffffffffff1673ffffffffffffffffffffffffffffffffffffffff16815260200190815260200160002060009054906101000a900460ff16151515610a7c57600080fd5b6001600082815481101515610a8d57fe5b906000526020600020906005020160040160003373ffffffffffffffffffffffffffffffffffffffff1673ffffffffffffffffffffffffffffffffffffffff16815260200190815260200160002060006101000a81548160ff021916908315150217905550600081815481101515610b0157fe5b90600052602060002090600502016003016000815480929190600101919050555050565b60045481565b60a0604051908101604052806060815260200160008152602001600073ffffffffffffffffffffffffffffffffffffffff168152602001600015158152602001600081525090565b828054600181600116156101000203166002900490600052602060002090601f016020900481019282601f10610bb457805160ff1916838001178555610be2565b82800160010185558215610be2579182015b82811115610be1578251825591602001919060010190610bc6565b5b509050610bef9190610bf3565b5090565b610c1591905b80821115610c11576000816000905550600101610bf9565b5090565b905600a165627a7a72305820165079a443ef681f447c79b5b71f08fd4cad5c105536a26be889b4b86187d3980029",
	"source": "pragma solidity ^0.4.17;\n\ncontract CampaignFactory {\n    address[] public deployedCampaigns;\n\n    function createCampaign(uint minimum) public {\n        address newCampaign = new Campaign(minimum, msg.sender); //creating a new contract through a contract\n        deployedCampaigns.push(newCampaign);\n    }\n\n    function getDeployedCampaigns() public view returns(address[]) {\n        return deployedCampaigns;\n    }\n}\n\ncontract Campaign {\n\n    struct Request {\n        string description;\n        uint value;\n        address recipient;\n        bool complete;\n        uint approvalsCount;\n        mapping(address => bool) approvers;\n    }\n\n    Request[] public requests;\n    address public manager;\n    uint public minimumContribution;\n    mapping(address => bool) public contributers;\n    uint public contributersCount; //number of contributers in this contract\n\n    modifier restricted() {\n        require(msg.sender == manager);\n        _;\n    }\n\n    function Campaign(uint minimum, address creator) public {\n        manager = creator;\n        minimumContribution = minimum;\n    }\n\n    function contribute() public payable {\n        require(msg.value > minimumContribution);\n        contributers[msg.sender] = true;\n        contributersCount++;\n    }\n\n    function createRequest(string description, uint value, address recipient) public restricted {\n        Request memory newRequest = Request ({\n            description: description,\n            value: value,\n            recipient: recipient,\n            complete: false,\n            approvalsCount: 0\n            //we only have to initialize value types not reference\n        });\n        requests.push(newRequest);\n    }\n\n    function approveRequest(uint index) public {\n        require(contributers[msg.sender]); //if this person is a contributer\n        require(!requests[index].approvers[msg.sender]); //if this person has voted already for this request\n\n        requests[index].approvers[msg.sender] = true;\n        requests[index].approvalsCount++;\n    }\n\n    function finalizeRequest(uint index) public restricted {\n        require(!requests[index].complete); //to check if request is not completed\n        require(requests[index].approvalsCount > (contributersCount / 2)); //50% of contributers have approved this request\n        requests[index].recipient.transfer(requests[index].value); //transfer the money to the recipient\n        requests[index].complete = true;\n    }\n\n    function getSummary() public view returns(uint, uint, uint, uint,address) {\n        return (\n            minimumContribution,\n            this.balance,\n            requests.length,\n            contributersCount,\n            manager\n        );\n    }\n\n    function getRequestsCount() public view returns(uint) {\n        return requests.length;\n    }\n}\n\n//npm install ganache-cli mocha solc@0.4.17 fs-extra web3 @truffle/hdwallet-provider\n//npm install ext react react-dom\n//npm install semantic-ui-react semantic-ui-css\n//npm install next-routes --legacy-peer-deps (for dynamic routimng in next.js)",
	"sourcePath": "/Users/sakshamgarg/Desktop/kickstart/contracts/Campaign.sol",
	"compiler": {
		"name": "solc",
		"version": "0.4.26+commit.4563c3fc.Emscripten.clang"
	},
	"schemaVersion": "3.4.13",
	"updatedAt": "2023-04-20T19:23:40.014Z",
	"devdoc": {
		"methods": {}
	},
	"userdoc": {
		"methods": {}
	}
}